:100000000A128A11F52FFF1B0D2883137F188317FF
:100010000008840A0319FF0A080000308A00040857
:10002000840A82070034013400340A340034643412
:100030000034E83403341034273441344434433436
:0C0040003A340034253433347534003475
:1007DE00F0007008831203139300080083160313AE
:1007EE00141CFA2BFB2BF52B08000A128A11F52389
:1007FE000A128A118312031313080800F100F00184
:10080E003A30710203180C2C0D2C152C303071025D
:10081E00031C122C132C152CF001F00A700C08007E
:10082E00F300831603138712731D1E2C1F2C232C0B
:10083E00720894008715272C700872049400871193
:10084E00730871048312031394000800F3008312DB
:10085E000313081373080A128A1164240A128A11E8
:10086E008312031388170630F2003030F100F10BBB
:10087E003E2CF20B3E2C000083120313881308004B
:10088E008316031788018901831603130711860146
:10089E0088018312031386018801071570308316B1
:1008AE0003138F040F14F001F101F20120300A122C
:1008BE008A1117240A128A110800F000701C682C85
:1008CE00692C6D2C831203130616702C83120313DE
:1008DE000612F01C732C742C762C8616772C86122E
:1008EE00701D7A2C7B2C7D2C06177E2C0613F01D8A
:1008FE00812C822C842C8617852C86130800F401FB
:10090E00F501701C8B2C8C2C922C7208F40703189A
:10091E00F50A7308F50701300310F20DF30DFF3ED3
:10092E00031D932C01300310F10CF00CFF3E031D40
:10093E009A2C70087104031DA52CA62C882C750802
:10094E00F1007408F0000800F40074080F39F2008A
:10095E007408F039F3008312031308177308F100BB
:10096E0004300310F10CFF3E031DB82C71080A125F
:10097E008A1164240A128A118312031388170D3008
:10098E00F100F10BC82C83120313881372080A129C
:10099E008A1164240A128A118312031388170D30E8
:1009AE00F100F10BD82C831203138813080078087A
:1009BE0079040319E32CE42C132DFD01FD0AF22C0E
:1009CE0001300310F80DF90DFF3E031DE82C013028
:1009DE00FC007C08FD07F91FF52CF62CE72C790896
:1009EE007B02031DFC2C78087A02031CFF2C002DC1
:1009FE00062D7808FA027908031CFB03FB0201306E
:100A0E000310F90CF80CFF3E031D072D0130FD02FB
:100A1E00031D122D132DF62C7B08F9007A08F80011
:100A2E000800FA01FB013D2D7A087507F8007608DB
:100A3E00F7000318F70AFA1F252DF7037708F900B8
:100A4E00790883120313FF00780884000A128A11B2
:100A5E0003200A128A110A128A11AB240A128A1171
:100A6E000130FA070318FB0A0030FB077A087507F6
:100A7E00F8007608F7000318F70AFA1F472DF70358
:100A8E007708F900790883120313FF0078088400B1
:100A9E000A128A1103200A128A11003A031D582DD8
:100AAE00592D1B2D0800F501F6017008710403196C
:100ABE00612D622D992DF701F70A702D013003106B
:100ACE00F00DF10DFF3E031D662D0130F40074088C
:100ADE00F707F11F732D742D652D01300310F50DE1
:100AEE00F60DFF3E031D752D71087302031D812D3A
:100AFE0070087202031C842D852D8C2D7008F20255
:100B0E007108031CF303F302751401300310F10C8A
:100B1E00F00CFF3E031D8D2D0130F702031D982DA5
:100B2E00992D742D7608F1007508F0000800F60076
:100B3E007603031DA32DA42DC12D74087F3EF9004D
:100B4E007908F50004300310F50CFF3E031DAA2DA5
:100B5E007508F70079080F39F80077080A128A111C
:100B6E002D240A128A1178080A128A112D240A12CB
:100B7E008A11E32D02307606031DC62DC72DE32DF7
:100B8E007408BF3EF9007908F50004300310F50C27
:100B9E00FF3E031DCD2D7508F70079080F39F800BB
:100BAE0077080A128A112D240A128A1178080A125D
:100BBE008A112D240A128A11080000300A128A1195
:100BCE0064240A128A111A30F500F830F400F40B7E
:100BDE00EE2DF50BEE2D000003300A128A112D2496
:100BEE000A128A110730F5007D30F400F40BFD2D4A
:100BFE00F50BFD2D03300A128A112D240A128A11CB
:100C0E004230F400F40B092E000003300A128A1150
:100C1E002D240A128A1102300A128A112D240A1268
:100C2E008A1102300A128A112D240A128A110830F2
:100C3E000A128A112D240A128A1100300A128A1100
:100C4E002D240A128A110C300A128A112D240A122E
:100C5E008A1100300A128A112D240A128A110630C6
:100C6E000A128A112D240A128A112130F400F40B73
:100C7E003E2E08000A128A1147240A128A110A12FD
:100C8E008A11E4250A128A11F401F40A01300A12BB
:100C9E008A119E250A128A110B30F5008030F6005B
:100CAE000A128A1118250A128A11831203130711C8
:100CBE00033083120313B0009730AF00AF0B652ED5
:100CCE00B00B652E00300A128A11EF230A128A1118
:100CDE000A128A11FC230A128A1183120313B1001D
:100CEE00033083120313B0009730AF00AF0B7D2E8D
:100CFE00B00B7D2E8312031307150230F400023061
:100D0E000A128A119E250A128A11103083120313B9
:100D1E00A0003108AF00B0012F08A1003008A200DA
:100D2E0032300A128A11AA260A128A113230F500BE
:100D3E000030F6000A128A1118250A128A115C2E4A
:100D4E000A128A11002883120313AB002130A70068
:100D5E00E02F25302E060319B52EB62EC02E2B08E9
:100D6E0084002E08831380000130A3002308AB07F4
:100D7E00E02FAC01AD01A601200884000A128A11F1
:100D8E000D200A128A110A128A1105240A128A11DA
:100D9E00031CD22ED32E192F83120313AC01AD01D7
:100DAE000A30F0000030F100831203132D08F30017
:100DBE002C08F2000A128A1186240A128A1171086E
:100DCE0083120313AD007008AC00200884000A12D1
:100DDE008A110D200A128A11D03EA300FF3003188B
:100DEE000030A4002308AC070318AD0A2408AD0791
:100DFE000130A3002308A007200884000A128A11DC
:100E0E000D200A128A110A128A1105240A128A1159
:100E1E000318122F132FD72E192FC030A30023081B
:100E2E00A604352F013083120313A007FF302007CD
:100E3E0084000A128A110D200A128A11AE00A30034
:100E4E00A4012408003A03192D2FE02F2308003A9D
:100E5E000319F02F753A0319142FE02F2708840079
:100E6E0083130008A800840A0008A9000230A3001A
:100E7E002308A707AE01AE0A2E08A3002307013EE2
:100E8E0084000A128A110D200A128A11A4000A1275
:100E9E008A110D200A128A11A50025082902031DA8
:100EAE005A2F2408280203185D2F5E2F5F2F692FFB
:100EBE000130A3002308AE0705302E06031D682F50
:100ECE00692F432F2D08803A803C031D702F2C086C
:100EDE002E020318732F742F802F831203132E08E4
:100EEE00A300A4012308AC022408031CAD03AD0229
:100EFE00842F83120313AC01AD012C082D040319AA
:100F0E00892F8A2F9F2F2B08840020308313800077
:100F1E000130A3002308AB07FF30AC070318AD0A5E
:100F2E00FF30AD072C082D04031D9E2F9F2F8A2FF7
:100F3E002E08AA00D72F0A30F8000030F9002A0830
:100F4E00A3002307013E84000A128A110D200A1203
:100F5E008A11F0000A128A110D200A128A11F1006C
:100F6E002908F3002808F2000A128A115A250A12DB
:100F7E008A117108FB007008FA000A128A11DE2429
:100F8E000A128A117808303E83120313AE002B0822
:100F9E0084002E08831380000130A3002308AB07C2
:100FAE00FF30A3002308AA072A0A031DDF2FE02F14
:100FBE00A22F0130A007FF30200784000A128A11E9
:100FCE000D200A128A11AE002E08031DEF2FF02FEE
:100FDE00B02E2B08840083138001080083120313A4
:100FEE00B101B201B301B401B50183010A128A1134
:020FFE00412E82
:08400000FF3FFF3FFF3FFF3FC0
:04400E00D420FF3F7C
:00000001FF
