:100000000A128A11F32FFF1B0D2883137F18831701
:100010000008840A0319FF0A080000308A00040857
:10002000840A82070034013400340A340034643412
:100030000034E83403341034273450344F3454340B
:1000400031343A342034203450344F345434323440
:100050003A340034253475342E342534753425343F
:0400600075340034BF
:10041E00F000700883120313930008008316031371
:10042E00141C1A2A1B2A152A080064008001840A4B
:10043E0004060319003404061D2A0A128A11152215
:10044E000A128A118312031313080800F30083168D
:10045E0003138712731D342A352A392A7208940021
:10046E0087153D2A70087204940087117308710471
:10047E008312031394000800F3008312031308136E
:10048E0073080A128A117C220A128A11831203132C
:10049E0088170630F2003030F100F10B542AF20BBF
:1004AE00542A0000831203138813080083160317BF
:1004BE0088018901831603130711871086018801AD
:1004CE008312031386018801071587147030831673
:1004DE0003138F040F14F001F101F20120300A1200
:1004EE008A112D220A128A110800F000701C802A2F
:1004FE00812A852A831203130616882A8312031370
:10050E000612F01C8B2A8C2A8E2A86168F2A8612A9
:10051E00701D922A932A952A0617962A0613F01D05
:10052E00992A9A2A9C2A86179D2A86130800F40176
:10053E00F501701CA32AA42AAA2A7208F40703182C
:10054E00F50A7308F50701300310F20DF30DFF3EA7
:10055E00031DAB2A01300310F10CF00CFF3E031DFE
:10056E00B22A70087104031DBD2ABE2AA02A75087E
:10057E00F1007408F0000800F40074080F39F2005E
:10058E007408F039F3008312031308177308F1008F
:10059E0004300310F10CFF3E031DD02A71080A121D
:1005AE008A117C220A128A118312031388170D30C6
:1005BE00F100F10BE02A83120313881372080A125A
:1005CE008A117C220A128A118312031388170D30A6
:1005DE00F100F10BF02A8312031388130800FC00BC
:1005EE00831203134E085002F6004F08031C4F0AE5
:1005FE005102F7007C08FB004E087B02F0004F0909
:10060E000318013EF10052085402F2005308031C75
:10061E00530A5502F3000A128A119E220A128A11F7
:10062E007108F9007008F8000A128A11E9240A12FA
:10063E008A118312031352087607CE00530803184B
:10064E00530A7707CF000800780879040319302B76
:10065E00312B602BFD01FD0A3F2B01300310F80DED
:10066E00F90DFF3E031D352B0130FC007C08FD0704
:10067E00F91F422B432B342B79087B02031D492B88
:10068E0078087A02031C4C2B4D2B532B7808FA0258
:10069E007908031CFB03FB0201300310F90CF80C64
:1006AE00FF3E031D542B0130FD02031D5F2B602BFB
:1006BE00432B7B08F9007A08F8000800FA01FB01C9
:1006CE008A2B7A087507F8007608F7000318F70AE0
:1006DE00FA1F722BF7037708F900790883120313B8
:1006EE00FF00780884000A128A1103200A128A1168
:1006FE000A128A11C3220A128A110130FA0703184C
:10070E00FB0A0030FB077A087507F8007608F70039
:10071E000318F70AFA1F942BF7037708F9007908E4
:10072E0083120313FF00780884000A128A11032033
:10073E000A128A11003A031DA52BA62B682B08005E
:10074E00F501F601700871040319AE2BAF2BE62BE1
:10075E00F701F70ABD2B01300310F00DF10DFF3E2E
:10076E00031DB32B0130F4007408F707F11FC02BE3
:10077E00C12BB22B01300310F50DF60DFF3E031DFC
:10078E00C22B71087302031DCE2B70087202031C5C
:10079E00D12BD22BD92B7008F2027108031CF30354
:1007AE00F302751401300310F10CF00CFF3E031D23
:1007BE00DA2B0130F702031DE52BE62BC12B760851
:1007CE00F1007508F0000800F6007603031DF02B0B
:1007DE00F12B0E2C74087F3EF9007908F5000430D9
:1007EE000310F50CFF3E031DF72B7508F700790873
:1007FE000F39F80077080A128A1143220A128A1159
:10080E0078080A128A1143220A128A11302C0230F9
:10081E007606031D132C142C302C7408BF3EF900E1
:10082E007908F50004300310F50CFF3E031D1A2C59
:10083E007508F70079080F39F80077080A128A113F
:10084E0043220A128A1178080A128A1143220A12C6
:10085E008A110800FD0183120313D11F372C382C87
:10086E003F2CD009D109D00A0319D10AFD01FD0A86
:10087E00CF1F422C432C482CCE09CF09CE0A031988
:10088E00CF0A4E084F0403194D2C4E2C7D2CFC0123
:10089E00FC0A5C2C01300310CE0DCF0DFF3E031D64
:1008AE00522C0130FB007B08FC07CF1F5F2C602C05
:1008BE00512C4F085102031D662C4E085002031C8A
:1008CE00692C6A2C702C4E08D0024F08031CD103E1
:1008DE00D10201300310CF0CCE0CFF3E031D712C44
:1008EE000130FC02031D7C2C7D2C602C7D0803192D
:1008FE00812C822C872CD009D109D00A0319D10A58
:10090E005108CF005008CE00080000300A128A119C
:10091E007C220A128A111A30F500F830F400F40B1A
:10092E00962CF50B962C000003300A128A114322E6
:10093E000A128A110730F5007D30F400F40BA52C55
:10094E00F50BA52C03300A128A1143220A128A11C2
:10095E004230F400F40BB12C000003300A128A115D
:10096E0043220A128A1102300A128A1143220A12F3
:10097E008A1102300A128A1143220A128A11083091
:10098E000A128A1143220A128A1100300A128A119F
:10099E0043220A128A110C300A128A1143220A12B9
:1009AE008A1100300A128A1143220A128A11063065
:1009BE000A128A1143220A128A112130F400F40B12
:1009CE00E62C080083120313CB01F71FEF2CF02C3B
:1009DE00F72CF609F709F60A0319F70ACB01CB0A29
:1009EE00F91FFA2CFB2C042DF809F909F80A031942
:1009FE00F90A0130FA007A08CB06CC01CD0176084F
:100A0E00770403190B2D0C2D432DCA01CA0A1A2D7A
:100A1E0001300310F60DF70DFF3E031D102D0130B2
:100A2E00FA007A08CA07F71F1D2D1E2D0F2D013053
:100A3E000310CC0DCD0DFF3E031D1F2D770879023F
:100A4E00031D2B2D76087802031C2E2D2F2D362DEF
:100A5E007608F8027708031CF903F9024C140130EA
:100A6E000310F70CF60CFF3E031D372D0130CA02A2
:100A7E00031D422D432D1E2D4B080319472D482DC6
:100A8E004D2DCC09CD09CC0A0319CD0A4D08F7001E
:100A9E004C08F600080083120313D9004B30D50022
:100AAE00FE2D25305A0603195D2D5E2D682D590831
:100ABE0084005A08831380000130D1005108D907F1
:100ACE00FE2DD4016F2DC030D1005108D404892DD4
:100ADE000130CA07FF304A0784000A128A110D201E
:100AEE000A128A11DA00D100D2015208003A031913
:100AFE00812DFE2D5108003A03190E2E753A031959
:100B0E006A2DFE2D5508840083130008D600840A32
:100B1E000008D7000230D1005108D507DA01DA0AF1
:100B2E005A08D1005107013E84000A128A110D2085
:100B3E000A128A11D2000A128A110D200A128A1183
:100B4E00D30053085702031DAE2D52085602031848
:100B5E00B12DB22DB32DBD2D0130D1005108DA07C4
:100B6E0005305A06031DBC2DBD2D972D5A08D800F1
:100B7E00F52D0A30F8000030F9005808D100510761
:100B8E00013E84000A128A110D200A128A11F00009
:100B9E000A128A110D200A128A11F1005708F30069
:100BAE005608F2000A128A11A7230A128A11710836
:100BBE00FB007008FA000A128A112B230A128A11FE
:100BCE007808303E83120313DA00590884005A085D
:100BDE00831380000130D1005108D907FF30D100B6
:100BEE005108D807580A031DFD2DFE2DC02D0130CA
:100BFE00CA07FF304A0784000A128A110D200A1212
:100C0E008A11DA005A08031D0D2E0E2E582D590882
:100C1E0084008313800108000A128A115D220A12D1
:100C2E008A110A128A118C240A128A11F401F40A0A
:100C3E0001300A128A11EB230A128A110B30F500C9
:100C4E008030F6000A128A1165230A128A11831265
:100C5E0003130711033083120313DC009730DB00FC
:100C6E00DB0B372EDC0B372E00300A128A110F22C7
:100C7E000A128A110A128A1124220A128A11831266
:100C8E000313B500033083120313DC009730DB002F
:100C9E00DB0B4F2EDC0B4F2E831203130715871021
:100CAE00033083120313DC009730DB00DB0B5D2E69
:100CBE00DC0B5D2E01300A128A110F220A128A11E4
:100CCE000A128A1124220A128A1183120313B40003
:100CDE00033083120313DC009730DB00DB0B752E21
:100CEE00DC0B752E8312031387141A308312031331
:100CFE00DC00F730DB00DB0B822EDC0B822E872E26
:100D0E00003083120313CE00CF00FF30D00000302E
:100D1E00D1000030D200D3006430D4000030D500B2
:100D2E0035080A128A11F6220A128A118312031347
:100D3E004F08B3004E08B2006430F6000030F700E2
:100D4E003308F1003208F0000530F2000030F300F5
:100D5E000A128A119E220A128A117108F90070086D
:100D6E00F8000A128A11E9240A128A1177088312EE
:100D7E000313AF007608AE000A30CE000030CF006D
:100D8E000A30F6000030F7003308F1003208F000A8
:100D9E000530F2000030F3000A128A119E220A1268
:100DAE008A117108F9007008F8000A128A11E924F4
:100DBE000A128A11770883120313D1007608D00025
:100DCE000A128A1131240A128A11831203134F0850
:100DDE00AD004E08AC000A30CE000030CF00330814
:100DEE00F1003208F0000530F2000030F3000A1274
:100DFE008A119E220A128A11710883120313D100DE
:100E0E007008D0000A128A1131240A128A11831234
:100E1E0003134F08AB004E08AA00F401F40A023087
:100E2E000A128A11EB230A128A1118308312031345
:100E3E00CA002F08CC002E08CB002D08CE002C089F
:100E4E00CD002B08D0002A08CF0040300A128A119C
:100E5E0052250A128A114030F5000030F6000A12AF
:100E6E008A1165230A128A11003083120313CE00F1
:100E7E00CF00FF30D0000030D1000030D200D300C0
:100E8E006430D4000030D50034080A128A11F622DC
:100E9E000A128A11831203134F08B1004E08B000D4
:100EAE006430F6000030F7003108F1003008F00031
:100EBE000530F2000030F3000A128A119E220A1247
:100ECE008A117108F9007008F8000A128A11E924D3
:100EDE000A128A11770883120313A9007608A80054
:100EEE000A30CE000030CF000A30F6000030F70096
:100EFE003108F1003008F0000530F2000030F30048
:100F0E000A128A119E220A128A117108F9007008BB
:100F1E00F8000A128A11E9240A128A11770883123C
:100F2E000313D1007608D0000A128A1131240A1256
:100F3E008A11831203134F08A7004E08A6000A3029
:100F4E00CE000030CF003108F1003008F00005303F
:100F5E00F2000030F3000A128A119E220A128A1140
:100F6E00710883120313D1007008D0000A128A117F
:100F7E0031240A128A11831203134F08A5004E085A
:100F8E00A4000730F40002300A128A11EB230A1271
:100F9E008A11183083120313CA002908CC002808BE
:100FAE00CB002708CE002608CD002508D000240847
:100FBE00CF0036300A128A1152250A128A113630A3
:100FCE00F5000030F6000A128A1165230A128A1102
:100FDE002E2E0A128A1100288313203084004A30E4
:100FEE000A128A111C220A128A1183010A128A110C
:020FFE00132EB0
:08400000FF3FFF3FFF3FFF3FC0
:04400E00D420FF3F7C
:00000001FF
