:060000000A128A11FB2F19
:100EE800F00070088312031393000800831603139D
:100EF800141C7F2F802F7A2F08000A128A117A2754
:100F08000A128A118312031313080800F3008316C8
:100F180003138712731D912F922F962F7208940036
:100F280087159A2F7008720494008711730871044A
:100F3800831203139400080083160317880189019C
:100F48008316031307118601880183120313860190
:100F5800880107157030831603138F040F14F001EE
:100F6800F101F20120300A128A118A270A128A1125
:100F780008000A128A11A0270A128A118312031381
:100F880007110330F5009730F400F40BC92FF50B67
:100F9800C92FCE2F0A300A128A1174270A128A1111
:100FA8000A128A1181270A128A11F7000330F50004
:100FB8009730F400F40BDE2FF50BDE2FE32F8312AE
:100FC800031307150330F6008A30F5005530F40096
:100FD800F40BEC2FF50BEC2FF60BEC2FF32F770817
:100FE800831203138600C22F0A128A110028F70100
:080FF80083010A128A11BD2FCA
:08400000FF3FFF3FFF3FFF3FC0
:04400E00D420FF3F7C
:00000001FF
