:100000000A128A11F42FFF1B0D2883137F18831700
:100010000008840A0319FF0A080000308A00040857
:10002000840A82070034013400340A340034643412
:100030000034E83403341034273450344F3454340B
:1000400031343A342034203450344F345434323440
:0C0050003A340034253433347534003465
:10073200F00070088312031393000800831603135A
:10074200141CA42BA52B9F2B08000A128A119F238D
:100752000A128A118312031313080800F100F00130
:100762003A3071020318B62BB72BBF2B303071020F
:10077200031CBC2BBD2BBF2BF001F00A700C080030
:10078200F300831603138712731DC82BC92BCD2BBD
:10079200720894008715D12B700872049400871197
:1007A200730871048312031394000800F300831288
:1007B2000313081373080A128A1110240A128A11E9
:1007C2008312031388170630F2003030F100F10B68
:1007D200E82BF20BE82B00008312031388130800A6
:1007E20083160317880189018316031307118710E3
:1007F2008601880183120313860188010715871475
:100802007030831603138F040F14F001F101F2010B
:1008120020300A128A11C1230A128A110800F0003C
:10082200701C142C152C192C8312031306161C2C65
:10083200831203130612F01C1F2C202C222C861666
:10084200232C8612701D262C272C292C06172A2CC5
:100852000613F01D2D2C2E2C302C8617312C8613CE
:100862000800F401F501701C372C382C3E2C72085C
:10087200F4070318F50A7308F50701300310F20DA7
:10088200F30DFF3E031D3F2C01300310F10CF00C61
:10089200FF3E031D462C70087104031D512C522C7F
:1008A200342C7508F1007408F0000800F400740894
:1008B2000F39F2007408F039F3008312031308179A
:1008C2007308F10004300310F10CFF3E031D642C89
:1008D20071080A128A1110240A128A118312031350
:1008E20088170D30F100F10B742C83120313881357
:1008F20072080A128A1110240A128A11831203132F
:1009020088170D30F100F10B842C83120313881326
:1009120008007808790403198F2C902CBF2CFD0154
:10092200FD0A9E2C01300310F80DF90DFF3E031D48
:10093200942C0130FC007C08FD07F91FA12CA22C8D
:10094200932C79087B02031DA82C78087A02031CD9
:10095200AB2CAC2CB22C7808FA027908031CFB03EE
:10096200FB0201300310F90CF80CFF3E031DB32CFF
:100972000130FD02031DBE2CBF2CA22C7B08F90006
:100982007A08F8000800FA01FB01E92C7A087507D9
:10099200F8007608F7000318F70AFA1FD12CF703BC
:1009A2007708F900790883120313FF00780884009E
:1009B2000A128A1103200A128A110A128A11572472
:1009C2000A128A110130FA070318FB0A0030FB07EA
:1009D2007A087507F8007608F7000318F70AFA1F75
:1009E200F32CF7037708F900790883120313FF0049
:1009F200780884000A128A1103200A128A11003A26
:100A0200031D042D052DC72C0800F501F601700801
:100A1200710403190D2D0E2D452DF701F70A1C2D1A
:100A220001300310F00DF10DFF3E031D122D0130B8
:100A3200F4007408F707F11F1F2D202D112D01302E
:100A42000310F50DF60DFF3E031D212D71087302F3
:100A5200031D2D2D70087202031C302D312D382DEF
:100A62007008F2027108031CF303F30275140130DB
:100A72000310F10CF00CFF3E031D392D0130F7027B
:100A8200031D442D452D202D7608F1007508F00038
:100A92000800F6007603031D4F2D502D6D2D7408AE
:100AA2007F3EF9007908F50004300310F50CFF3E93
:100AB200031D562D7508F70079080F39F8007708DD
:100AC2000A128A11D7230A128A1178080A128A1185
:100AD200D7230A128A118F2D02307606031D722D3A
:100AE200732D8F2D7408BF3EF9007908F50004308C
:100AF2000310F50CFF3E031D792D7508F7007908E8
:100B02000F39F80077080A128A11D7230A128A11BC
:100B120078080A128A11D7230A128A1108000030B3
:100B22000A128A1110240A128A111A30F500F830BA
:100B3200F400F40B9A2DF50B9A2D000003300A12E3
:100B42008A11D7230A128A110730F5007D30F4008A
:100B5200F40BA92DF50BA92D03300A128A11D72304
:100B62000A128A114230F400F40BB52D0000033052
:100B72000A128A11D7230A128A1102300A128A1122
:100B8200D7230A128A1102300A128A11D7230A12B3
:100B92008A1108300A128A11D7230A128A110030E8
:100BA2000A128A11D7230A128A110C300A128A11E8
:100BB200D7230A128A1100300A128A11D7230A1285
:100BC2008A1106300A128A11D7230A128A11213099
:100BD200F400F40BEA2D08000A128A11F1230A121A
:100BE2008A110A128A1190250A128A11F401F40A52
:100BF20001300A128A114A250A128A110B30F500B5
:100C02008030F6000A128A11C4240A128A11831251
:100C120003130711033083120313B0009730AF00A0
:100C2200AF0B112EB00B112E00300A128A1199232C
:100C32000A128A110A128A11A6230A128A1183122F
:100C42000313B200033083120313B0009730AF00D6
:100C5200AF0B292EB00B292E831203130715871011
:100C6200033083120313B0009730AF00AF0B372E5F
:100C7200B00B372E01300A128A1199230A128A11F7
:100C82000A128A11A6230A128A1183120313B100CF
:100C9200033083120313B0009730AF00AF0B4F2E17
:100CA200B00B4F2E8312031387141A3083120313CF
:100CB200B000F730AF00AF0B5C2EB00B5C2E612E94
:100CC200F401F40A02300A128A114A250A128A1120
:100CD200183083120313A0003208AF00B0012F08AE
:100CE200A1003008A20033300A128A11A9260A1282
:100CF2008A113330F5000030F6000A128A11C4243A
:100D02000A128A110730F40002300A128A114A25A7
:100D12000A128A11183083120313A0003108AF009F
:100D2200B0012F08A1003008A20033300A128A1144
:100D3200A9260A128A113330F5000030F6000A1291
:100D42008A11C4240A128A11082E0A128A11002852
:100D520083120313AD002130A700DF2F25302E06AA
:100D62000319B42EB52EBF2E2D0884002E0883132E
:100D720080000130A3002308AD07DF2FAB01AC01D7
:100D8200A601200884000A128A110D200A128A1173
:100D92000A128A11AF230A128A11031CD12ED22EF3
:100DA200182F83120313AB01AC010A30F00000309C
:100DB200F100831203132C08F3002B08F2000A122D
:100DC2008A1132240A128A11710883120313AC00A9
:100DD2007008AB00200884000A128A110D200A1242
:100DE2008A11D03EA300FF3003180030A40023086C
:100DF200AB070318AC0A2408AC070130A300230890
:100E0200A007200884000A128A110D200A128A11F2
:100E12000A128A11AF230A128A110318112F122FF4
:100E2200D62E182FC030A3002308A604342F013079
:100E320083120313A007FF30200784000A128A11CD
:100E42000D200A128A11AE00A300A4012408003A60
:100E520003192C2FDF2F2308003A0319EF2F753ABD
:100E62000319132FDF2F2708840083130008A8001B
:100E7200840A0008A9000230A3002308A707AE01D4
:100E8200AE0A2E08A3002307013E84000A128A112B
:100E92000D200A128A11A4000A128A110D200A12C8
:100EA2008A11A50025082902031D592F24082802AA
:100EB20003185C2F5D2F5E2F682F0130A3002308DB
:100EC200AE0705302E06031D672F682F422F2C0810
:100ED200803A803C031D6F2F2B082E020318722FBD
:100EE200732F7F2F831203132E08A300A40123085C
:100EF200AB022408031CAC03AC02832F831203133E
:100F0200AB01AC012B082C040319882F892F9E2FCB
:100F12002D0884002030831380000130A3002308B1
:100F2200AD07FF30AB070318AC0AFF30AC072B0844
:100F32002C04031D9D2F9E2F892F2E08AA00D62F29
:100F42000A30F8000030F9002A08A3002307013E06
:100F520084000A128A110D200A128A11F0000A1264
:100F62008A110D200A128A11F1002908F3002808BB
:100F7200F2000A128A1106250A128A117108FB0070
:100F82007008FA000A128A118A240A128A11780851
:100F9200303E83120313AE002D0884002E08831303
:100FA20080000130A3002308AD07FF30A30023080F
:100FB200AA072A0A031DDE2FDF2FA12F0130A00767
:100FC200FF30200784000A128A110D200A128A11AA
:100FD200AE002E08031DEE2FEF2FAF2E2D0884003A
:100FE20083138001080083120313B101B201B3011C
:0E0FF200B401B501B60183010A128A11ED2D7A
:08400000FF3FFF3FFF3FFF3FC0
:04400E00D420FF3F7C
:00000001FF
