:100000000A128A11EB2FFF1B0D2883137F18831709
:100010000008840A0319FF0A080000308A00040857
:10002000840A82070034013400340A340034643412
:100030000034E83403341034273450344F3454340B
:1000400031343A34203450344F34543432343A3426
:10005000203443344F344E3454343A34003425344D
:1000600075342E34253475342534753400342534F4
:080070003034333475340034E0
:1001CE00F0007008831203139300080083160313C4
:1001DE00141CF228F328ED28080064008001840A1C
:1001EE000406031900340406F5280A128A11ED20BC
:1001FE000A128A118312031313080800F100F0018A
:10020E003A30710203180C290D291529303071026C
:10021E00031C122913291529F001F00A700C08008D
:10022E00F300831603138712731D1E291F2923291A
:10023E00720894008715272970087204940087119C
:10024E00730871048312031394000800F3008312E1
:10025E000313081373080A128A1166210A128A11EF
:10026E008312031388170B30F2006230F100F10B8A
:10027E003E29F20B3E290000831203138813080057
:10028E00831603178801890183160313071187103C
:10029E0086018801831203138601880107158714CE
:1002AE007030831603138F040F14F001F101F20165
:1002BE0020300A128A1117210A128A110800F00042
:1002CE00701C6A296B296F29831203130616722973
:1002DE00831203130612F01C7529762978298616C7
:1002EE0079298612701D7C297D297F290617802980
:1002FE000613F01D832984298629861787298613DC
:10030E000800F401F501701C8D298E2994297208BC
:10031E00F4070318F50A7308F50701300310F20D00
:10032E00F30DFF3E031D952901300310F10CF00C67
:10033E00FF3E031D9C2970087104031DA729A829DF
:10034E008A297508F1007408F0000800F40074089A
:10035E000F39F2007408F039F300831203130817F3
:10036E007308F10004300310F10CFF3E031DBA298F
:10037E0071080A128A1166210A128A118312031356
:10038E0088171A30F100F10BCA29000083120313EB
:10039E00881372080A128A1166210A128A118312B0
:1003AE00031388171A30F100F10BDB2900008312BA
:1003BE00031388130800FC00831203135F08610205
:1003CE00F6006008031C600A6202F7007C08FB005E
:1003DE005F087B02F00060090318013EF10063081C
:1003EE006502F2006408031C640A6602F3000A1236
:1003FE008A1188210A128A117108F9007008F80012
:10040E000A128A11D6230A128A1183120313630861
:10041E007607DF0064080318640A7707E000080017
:10042E007808790403191C2A1D2A4C2AFD01FD0A9D
:10043E002B2A01300310F80DF90DFF3E031D212A62
:10044E000130FC007C08FD07F91F2E2A2F2A202AD6
:10045E0079087B02031D352A78087A02031C382A94
:10046E00392A3F2A7808FA027908031CFB03FB029B
:10047E0001300310F90CF80CFF3E031D402A013029
:10048E00FD02031D4B2A4C2A2F2A7B08F9007A08FD
:10049E00F8000800FA01FB01762A7A087507F800C1
:1004AE007608F7000318F70AFA1F5E2AF703770893
:1004BE00F900790883120313FF00780884000A12EA
:1004CE008A1103200A128A110A128A11AD210A1208
:1004DE008A110130FA070318FB0A0030FB077A086D
:1004EE007507F8007608F7000318F70AFA1F802A36
:1004FE00F7037708F900790883120313FF007808D1
:10050E0084000A128A1103200A128A11003A031D6E
:10051E00912A922A542A0800F501F60170087104F6
:10052E0003199A2A9B2AD22AF701F70AA92A01301F
:10053E000310F00DF10DFF3E031D9F2A0130F40054
:10054E007408F707F11FAC2AAD2A9E2A013003105A
:10055E00F50DF60DFF3E031DAE2A71087302031D45
:10056E00BA2A70087202031CBD2ABE2AC52A700858
:10057E00F2027108031CF303F30275140130031029
:10058E00F10CF00CFF3E031DC62A0130F702031DCD
:10059E00D12AD22AAD2A7608F1007508F00008009B
:1005AE00F6007603031DDC2ADD2AFA2A74087F3E44
:1005BE00F9007908F50004300310F50CFF3E031D19
:1005CE00E32A7508F70079080F39F80077080A1240
:1005DE008A112D210A128A1178080A128A112D21E8
:1005EE000A128A111C2B02307606031DFF2A002BDD
:1005FE001C2B7408BF3EF9007908F5000430031077
:10060E00F50CFF3E031D062B7508F70079080F3910
:10061E00F80077080A128A112D210A128A11780819
:10062E000A128A112D210A128A110800FD01831265
:10063E000313E21F232B242B2B2BE109E209E10AE2
:10064E000319E20AFD01FD0AE01F2E2B2F2B342B7E
:10065E00DF09E009DF0A0319E00A5F0860040319E5
:10066E00392B3A2B692BFC01FC0A482B0130031065
:10067E00DF0DE00DFF3E031D3E2B0130FB007B081E
:10068E00FC07E01F4B2B4C2B3D2B60086202031D19
:10069E00522B5F086102031C552B562B5C2B5F08F7
:1006AE00E1026008031CE203E20201300310E00CD9
:1006BE00DF0CFF3E031D5D2B0130FC02031D682B7A
:1006CE00692B4C2B7D0803196D2B6E2B732BE109B7
:1006DE00E209E10A0319E20A6208E0006108DF009C
:1006EE00080000300A128A1166210A128A1134306B
:1006FE00F500F130F400F40B822BF50B822B872BD7
:10070E0003300A128A112D210A128A110D30F500BA
:10071E00FB30F400F40B912BF50B912B962B033041
:10072E000A128A112D210A128A118530F400F40B57
:10073E009E2B03300A128A112D210A128A110230C1
:10074E000A128A112D210A128A1102300A128A11F6
:10075E002D210A128A1108300A128A112D210A122D
:10076E008A1100300A128A112D210A128A110C30B8
:10077E000A128A112D210A128A1100300A128A11C8
:10078E002D210A128A1106300A128A112D210A12FF
:10079E008A114230F400F40BD22B000008008312B1
:1007AE000313DC01F71FDC2BDD2BE42BF609F70915
:1007BE00F60A0319F70ADC01DC0AF91FE72BE82B0E
:1007CE00F12BF809F909F80A0319F90A0130FA00B0
:1007DE007A08DC06DD01DE01760877040319F82BB2
:1007EE00F92B302CDB01DB0A072C01300310F60D40
:1007FE00F70DFF3E031DFD2B0130FA007A08DB07D3
:10080E00F71F0A2C0B2CFC2B01300310DD0DDE0D17
:10081E00FF3E031D0C2C77087902031D182C760859
:10082E007802031C1B2C1C2C232C7608F80277084C
:10083E00031CF903F9025D1401300310F70CF60CDA
:10084E00FF3E031D242C0130DB02031D2F2C302C08
:10085E000B2C5C080319342C352C3A2CDD09DE09DF
:10086E00DD0A0319DE0A5E08F7005D08F6000800CF
:10087E0083120313EA005C30E500AE2D25306D06C1
:10088E0003194A2C4B2C552C6A0884006D088313CF
:10089E0080000130E2006208EA07AE2DEB01EC01A8
:1008AE00E6015E2C66150130E2006208DB075B088C
:1008BE0084000A128A110D200A128A11E200E30145
:1008CE006308003A03196C2C712C6208303A031934
:1008DE00592C712C5B0884000A128A110D200A1201
:1008EE008A110A128A1105210A128A11031C802C00
:1008FE00812CC72C83120313EB01EC010A30F0009C
:10090E000030F100831203136C08F3006B08F20041
:10091E000A128A1188210A128A117108831203138E
:10092E00EC007008EB005B0884000A128A110D209F
:10093E000A128A11D03EE200FF3003180030E300A5
:10094E006208EB070318EC0A6308EC070130E200BB
:10095E006208DB075B0884000A128A110D200A1256
:10096E008A110A128A1105210A128A110318C02C43
:10097E00C12C852CC72CC030E2006208E604E32CA3
:10098E00013083120313DB07FF305B0784000A126A
:10099E008A110D200A128A11ED00E200E3016308AC
:1009AE00003A0319DB2CAE2D6208003A0319BE2D56
:1009BE00753A0319C22CAE2D650884008313000806
:1009CE00E700840A0008E8000230E2006208E5074A
:1009DE00ED01ED0A6D08E2006207013E84000A1285
:1009EE008A110D200A128A11E3000A128A110D20B3
:1009FE000A128A11E40064086802031D082D6308B8
:100A0E00670203180B2D0C2D0D2D172D0130E20052
:100A1E006208ED0705306D06031D162D172DF12CFE
:100A2E006C08803A803C031D1E2D6B086D02031866
:100A3E00212D222D2E2D831203136D08E200E301CA
:100A4E006208EB026308031CEC03EC02322D8312E6
:100A5E000313EB01EC01661D352D362D522D6B085F
:100A6E006C0403193B2D3C2D6D2D6A08840030302B
:100A7E00831380000130E2006208EA07FF30EB07C3
:100A8E000318EC0AFF30EC076B086C04031D502DA5
:100A9E00512D3C2D6D2D6B086C040319572D582DBF
:100AAE006D2D6A0884002030831380000130E2002F
:100ABE006208EA07FF30EB070318EC0AFF30EC0779
:100ACE006B086C04031D6C2D6D2D582D6D08E900FF
:100ADE00A52D0A30F8000030F9006908E20062071F
:100AEE00013E84000A128A110D200A128A11F000AA
:100AFE000A128A110D200A128A11F1006808F300F9
:100B0E006708F2000A128A1193220A128A117108DA
:100B1E00FB007008FA000A128A1117220A128A11B3
:100B2E007808303E83120313ED006A0884006D08C6
:100B3E00831380000130E2006208EA07FF30E20012
:100B4E006208E907690A031DAD2DAE2D702D013027
:100B5E00DB07FF305B0784000A128A110D200A1290
:100B6E008A11ED006D08031DBD2DBE2D452C6A08A2
:100B7E0084008313800108000A128A1147210A1289
:100B8E008A110A128A1178230A128A11F401F40AC0
:100B9E0001300A128A11D7220A128A110B30F5007F
:100BAE008030F6000A128A1151220A128A1183121B
:100BBE0003130711033083120313EF009730EE0077
:100BCE00EE0BE72DEF0BE72D01300A128A11E7200D
:100BDE000A128A110A128A11FC200A128A11831231
:100BEE000313C600033083120313EF009730EE0099
:100BFE00EE0BFF2DEF0BFF2D8312031307150711BD
:100C0E00033083120313EF009730EE00EE0B0D2E20
:100C1E00EF0B0D2E03300A128A11E7200A128A11E9
:100C2E000A128A11FC200A128A1183120313C400BD
:100C3E00033083120313EF009730EE00EE0B252ED8
:100C4E00EF0B252E83120313071587100330831223
:100C5E000313EF009730EE00EE0B332EEF0B332E17
:100C6E0002300A128A11E7200A128A110A128A1118
:100C7E00FC200A128A1183120313C500033083125B
:100C8E000313EF009730EE00EE0B4B2EEF0B4B2EB7
:100C9E008312031387141A3083120313EF00F730F5
:100CAE00EE00EE0B582EEF0B582E5D2E00308312F9
:100CBE000313DF00E000FF30E1000030E2000030FF
:100CCE00E300E4006430E5000030E60046080A1256
:100CDE008A11E2210A128A11831203136008C300DB
:100CEE005F08C2006430F6000030F7004308F100E0
:100CFE004208F0000530F2000030F3000A128A11AB
:100D0E0088210A128A117108F9007008F8000A1277
:100D1E008A11D6230A128A11770883120313BF0091
:100D2E007608BE000A30DF000030E0000A30F60020
:100D3E000030F7004308F1004208F0000530F200E1
:100D4E000030F3000A128A1188210A128A117108E2
:100D5E00F9007008F8000A128A11D6230A128A11B5
:100D6E00770883120313E2007608E1000A128A1153
:100D7E001D230A128A11831203136008BD005F0837
:100D8E00BC000A30DF000030E0004308F1004208EA
:100D9E00F0000530F2000030F3000A128A118821AB
:100DAE000A128A11710883120313E2007008E1001F
:100DBE000A128A111D230A128A1183120313600864
:100DCE00BB005F08BA00F401F40A02300A128A115D
:100DDE00D7220A128A111D3083120313DB003F083B
:100DEE00DD003E08DC003D08DF003C08DE003B086D
:100DFE00E1003A08E00047300A128A113F240A1235
:100E0E008A114730F5000030F6000A128A1151227D
:100E1E000A128A11003083120313DF00E000FF3044
:100E2E00E1000030E2000030E300E4006430E50051
:100E3E000030E60045080A128A11E2210A128A11D0
:100E4E00831203136008C1005F08C0006430F6000F
:100E5E000030F7004108F1004008F0000530F200C4
:100E6E000030F3000A128A1188210A128A117108C1
:100E7E00F9007008F8000A128A11D6230A128A1194
:100E8E00770883120313B9007608B8000A30DF0022
:100E9E000030E0000A30F6000030F7004108F100A3
:100EAE004008F0000530F2000030F3000A128A11FB
:100EBE0088210A128A117108F9007008F8000A12C6
:100ECE008A11D6230A128A11770883120313E200BD
:100EDE007608E1000A128A111D230A128A11831262
:100EEE0003136008B7005F08B6000A30DF00003059
:100EFE00E0004108F1004008F0000530F20000303B
:100F0E00F3000A128A1188210A128A1171088312BB
:100F1E000313E2007008E1000A128A111D230A125F
:100F2E008A11831203136008B5005F08B4000730FE
:100F3E00F40002300A128A11D7220A128A111D30C9
:100F4E0083120313DB003908DD003808DC00370894
:100F5E00DF003608DE003508E1003408E0004730D7
:100F6E000A128A113F240A128A114730F500003006
:100F7E00F6000A128A1151220A128A110E30F4005A
:100F8E0002300A128A11D7220A128A1125308312D0
:100F9E000313DB004408EE00EF016E08DC006F085F
:100FAE00DD00A0300A128A113F240A128A11A030E5
:100FBE00F5000030F6000A128A1151220A128A1127
:100FCE00DE2D0A128A1100288313203084005B3034
:100FDE000A128A11F4200A128A11A0308400B43049
:100FEE000A128A11F4200A128A1183010A128A1136
:020FFE00C32D01
:08400000FF3FFF3FFF3FFF3FC0
:04400E00D420FF3F7C
:00000001FF
