:060000000A128A110C280F
:10000800FE00030EFA000A08FB000A128A117C2976
:100018000A128A110F28F001F101F201F301F4012B
:10002800F50183120313A001A101A201A301A401F8
:10003800A501A601A70183010A128A11F9298312D1
:10004800031328082904031D2A282B283228C33023
:100058009F058316031708080138880083120313C5
:1000680028032904031D39283A2843281F08C339BF
:1000780004389F00831603170808023888000230E6
:100088008312031328062904031D4B284C285528DE
:100098001F08C33908389F00831603170808043857
:1000A800880003308312031328062904031D5D28E2
:1000B8005E2867281F08C3390C389F00831603176A
:1000C8000808083888000430831203132806290416
:1000D800031D6F28702879281F08C33910389F001E
:1000E8008316031708081038880005308312031395
:1000F80028062904031D812882288B281F08C33954
:1001080014389F0083160317080820388800063023
:100118008312031328062904031D932894289D2875
:100128001F08C33918389F0083160317080840387A
:10013800880007308312031328062904031DA52805
:10014800A628AF281F08C3391C389F008316031739
:100158000808803888000830831203132806290409
:10016800031DB728B828C1281F08C33920389F00A5
:10017800831603170908013889000930831203130D
:1001880028062904031DC928CA28D3281F08C339EB
:1001980024389F00831603170908023889000A309B
:1001A8008312031328062904031DDB28DC28E5280D
:1001B8001F08C33928389F00831603170908043815
:1001C80089000B308312031328062904031DED2828
:1001D800EE28F7281F08C3392C389F008316031709
:1001E8000908083889000C308312031328062904EB
:1001F800031DFF28002909291F08C33930389F002B
:10020800831603170908103889000D308312031369
:1002180028062904031D112912291B291F08C3397F
:1002280034389F008316031709082038890008000E
:1002380083120313A8008B15831603138113073049
:10024800831203132806031D2A292B292F29831615
:10025800031395179617063083122806031D3529B0
:1002680036293A29831603131517161705308312F2
:100278002806031D4029412945298316031395168D
:100288009616043083122806031D4B294C29502941
:100298008316031315161616033083122806031D3A
:1002A800562957295B29831603139515961502308D
:1002B80083122806031D6129622966298316031300
:1002C8001515161583122803031D6B296C2970292F
:1002D800831603139514961483122808031D752991
:1002E80076297A2983160313151416140B1008009F
:1002F800831203130C1F812982298F290A128A115C
:100308008F220A128A117708F1007608F000710826
:10031800F3007008F200831203130C138C1D952947
:100328009629B7290A128A1199220A128A11F50008
:100338007503031DA029A129A82974080A128A1186
:10034800A9220A128A11B42903307506031DAD29A2
:10035800AE29B42972080A128A11A9220A128A112E
:10036800831203138C110B1CBA29BB29C1290A1249
:100378008A11C8210A128A110B107B088A007A0E8A
:100388008300FE0E7E0E090083120313061BCD297F
:10039800CE29D2290130A2000030A300061FD5299A
:1003A800D629E22922032304031DDB29DC29E229BB
:1003B8000130F6007608F407A201A301861BE5299F
:1003C800E629EA290130A0000030A100861FED29A6
:1003D800EE29F82920032104031DF329F429F8291B
:1003E8000130F402A001A10108000A128A11292291
:1003F8000A128A11003083120313AA00AB000A12F2
:100408008A1152220A128A1107300A128A111C21F3
:100418000A128A1106300A128A111C210A128A113C
:10042800831203139F18192A1A2A142A9F14823038
:1004380083120313AE00DD30AD00AD0B212AAE0BE5
:10044800212A142A0A128A110C28831603178801F4
:1004580089010814831603130514061786178801E3
:1004680083120313860188017030831603138F04E7
:100478000F148B170B17831203138C118316031396
:100488008C15851683120313A801A901AA0124302B
:100498000A128A1171220A128A11080083120313A0
:1004A8009F131F13831603139F121F129F13831288
:1004B80003132B08A9002A08A8000A128A1123206E
:1004C8000A128A11831203131F14053083120313AF
:1004D800AC00AC0B6D2A702A080083120313AB0022
:1004E800831603138712831203132B1D7C2A7D2A7C
:1004F800832A2A088316031394008715892A280853
:100508002A048316031394008711831203132B08FC
:10051800290494000800831203131E08F800F90147
:100528007808F6007908F70008000A128A11A22252
:100538000A128A118312031313080800831603137F
:10054800141CA72AA82AA22A0800F60076088312F3
:06055800031393000800EC
:08400000FF3FFF3FFF3FFF3FC0
:04400E00D420FF3F7C
:00000001FF
