:100000000A128A11F52FFF1B0D2883137F188317FF
:100010000008840A0319FF0A080000308A00040857
:10002000840A82070034013400340A340034643412
:100030000034E83403341034273450344F3454340B
:0E00400031343A34003425343334753400340E
:1007C200F0007008831203139300080083160313CA
:1007D200141CEC2BED2BE72B08000A128A11E723DD
:1007E2000A128A118312031313080800F100F001A0
:1007F2003A3071020318FE2BFF2B072C30307102A6
:10080200031C042C052C072CF001F00A700C0800C4
:10081200F300831603138712731D102C112C152C51
:10082200720894008715192C7008720494008711BD
:10083200730871048312031394000800F3008312F7
:100842000313081373080A128A1156240A128A1112
:100852008312031388170B30F2006230F100F10BA0
:10086200302CF20B302C0000831203138813080083
:100872008316031788018901831603130711860162
:1008820088018312031386018801071570308316CD
:1008920003138F040F14F001F101F20120300A1248
:1008A2008A1109240A128A110800F000701C5A2CBD
:1008B2005B2C5F2C831203130616622C8312031324
:1008C2000612F01C652C662C682C8616692C861282
:1008D200701D6C2C6D2C6F2C0617702C0613F01DDE
:1008E200732C742C762C8617772C86130800F4014F
:1008F200F501701C7D2C7E2C842C7208F4070318E1
:10090200F50A7308F50701300310F20DF30DFF3EEF
:10091200031D852C01300310F10CF00CFF3E031D6A
:100922008C2C70087104031D972C982C7A2C750856
:10093200F1007408F0000800F40074080F39F200A6
:100942007408F039F3008312031308177308F100D7
:1009520004300310F10CFF3E031DAA2C71080A1289
:100962008A1156240A128A118312031388171A3025
:10097200F100F10BBA2C00008312031388137208E2
:100982000A128A1156240A128A1183120313881733
:100992001A30F100F10BCB2C0000831203138813E1
:1009A2000800780879040319D72CD82C072DFD01EB
:1009B200FD0AE62C01300310F80DF90DFF3E031D70
:1009C200DC2C0130FC007C08FD07F91FE92CEA2C25
:1009D200DB2C79087B02031DF02C78087A02031CB9
:1009E200F32CF42CFA2C7808FA027908031CFB0386
:1009F200FB0201300310F90CF80CFF3E031DFB2C27
:100A02000130FD02031D062D072DEA2C7B08F9009B
:100A12007A08F8000800FA01FB01312D7A087507FF
:100A2200F8007608F7000318F70AFA1F192DF703E2
:100A32007708F900790883120313FF00780884000D
:100A42000A128A1103200A128A110A128A119D249B
:100A52000A128A110130FA070318FB0A0030FB0759
:100A62007A087507F8007608F7000318F70AFA1FE4
:100A72003B2DF7037708F900790883120313FF006F
:100A8200780884000A128A1103200A128A11003A95
:100A9200031D4C2D4D2D0F2D0800F501F601700898
:100AA20071040319552D562D8D2DF701F70A642D6A
:100AB20001300310F00DF10DFF3E031D5A2D0130E0
:100AC200F4007408F707F11F672D682D592D0130C6
:100AD2000310F50DF60DFF3E031D692D710873021B
:100AE200031D752D70087202031C782D792D802D3F
:100AF2007008F2027108031CF303F302751401304B
:100B02000310F10CF00CFF3E031D812D0130F702A2
:100B1200031D8C2D8D2D682D7608F1007508F000CF
:100B22000800F6007603031D972D982DB52D740845
:100B32007F3EF9007908F50004300310F50CFF3E02
:100B4200031D9E2D7508F70079080F39F800770804
:100B52000A128A111F240A128A1178080A128A11AB
:100B62001F240A128A11D72D02307606031DBA2DD0
:100B7200BB2DD72D7408BF3EF9007908F50004306B
:100B82000310F50CFF3E031DC12D7508F70079080F
:100B92000F39F80077080A128A111F240A128A11E3
:100BA20078080A128A111F240A128A1108000030DA
:100BB2000A128A1156240A128A113430F500F130D1
:100BC200F400F40BE22DF50BE22DE72D03300A12AF
:100BD2008A111F240A128A110D30F500FB30F4002D
:100BE200F40BF12DF50BF12DF62D03300A128A11BB
:100BF2001F240A128A118530F400F40BFE2D0330F3
:100C02000A128A111F240A128A1102300A128A1148
:100C12001F240A128A1102300A128A111F240A1290
:100C22008A1108300A128A111F240A128A1100300E
:100C32000A128A111F240A128A110C300A128A110E
:100C42001F240A128A1100300A128A111F240A1262
:100C52008A1106300A128A111F240A128A1142309E
:100C6200F400F40B322E000008000A128A11392413
:100C72000A128A110A128A11D8250A128A11F4015B
:100C8200F40A01300A128A1192250A128A110B30D3
:100C9200F5008030F6000A128A110C250A128A1118
:100CA200831203130711033083120313B00097302A
:100CB200AF00AF0B5A2EB00B5A2E00300A128A1117
:100CC200E1230A128A110A128A11EE230A128A11E8
:100CD20083120313B100033083120313B000973061
:100CE200AF00AF0B722EB00B722E831203130715D7
:100CF2001A3083120313B000F730AF00AF0B7F2E10
:100D0200B00B7F2E842EF401F40A02300A128A11EB
:100D120092250A128A11113083120313A00031089E
:100D2200AF00B0012F08A1003008A20032300A1231
:100D32008A11AA260A128A113230F5000030F60012
:100D42000A128A110C250A128A11512E0A128A11CC
:100D5200002883120313AB002130A700E02F2530B7
:100D62002E060319B52EB62EC02E2B0884002E088F
:100D7200831380000130A3002308AB07E02FAC01EE
:100D8200AD01A601200884000A128A110D200A1260
:100D92008A110A128A11F7230A128A11031CD22E0F
:100DA200D32E192F83120313AC01AD010A30F000C8
:100DB2000030F100831203132D08F3002C08F20017
:100DC2000A128A1178240A128A11710883120313F3
:100DD200AD007008AC00200884000A128A110D20B0
:100DE2000A128A11D03EA300FF3003180030A4007B
:100DF2002308AC070318AD0A2408AD070130A3008D
:100E02002308A007200884000A128A110D200A1262
:100E12008A110A128A11F7230A128A110318122F51
:100E2200132FD72E192FC030A3002308A604352F65
:100E3200013083120313A007FF30200784000A1237
:100E42008A110D200A128A11AE00A300A4012408FF
:100E5200003A03192D2FE02F2308003A0319F02F2F
:100E6200753A0319142FE02F270884008313000812
:100E7200A800840A0008A9000230A3002308A707DB
:100E8200AE01AE0A2E08A3002307013E84000A1217
:100E92008A110D200A128A11A4000A128A110D2049
:100EA2000A128A11A50025082902031D5A2F2408B7
:100EB200280203185D2F5E2F5F2F692F0130A300D8
:100EC2002308AE0705302E06031D682F692F432F16
:100ED2002D08803A803C031D702F2C082E02031827
:100EE200732F742F802F831203132E08A300A401E3
:100EF2002308AC022408031CAD03AD02842F831225
:100F02000313AC01AD012C082D040319892F8A2F7C
:100F12009F2F2B0884002030831380000130A30010
:100F22002308AB07FF30AC070318AD0AFF30AD074B
:100F32002C082D04031D9E2F9F2F8A2F2E08AA00F6
:100F4200D72F0A30F8000030F9002A08A30023073F
:100F5200013E84000A128A110D200A128A11F00041
:100F62000A128A110D200A128A11F1002908F300CF
:100F72002808F2000A128A114E250A128A117108F3
:100F8200FB007008FA000A128A11D2240A128A118E
:100F92007808303E83120313AE002B0884002E081B
:100FA200831380000130A3002308AB07FF30A300A6
:100FB2002308AA072A0A031DDF2FE02FA22F0130E0
:100FC200A007FF30200784000A128A110D200A129E
:100FD2008A11AE002E08031DEF2FF02FB02E2B0822
:100FE200840083138001080083120313B101B2014C
:0E0FF200B301B401B50183010A128A11362E33
:08400000FF3FFF3FFF3FFF3FC0
:04400E00D420FF3F7C
:00000001FF
