:060000000A128A110C280F
:10000800FE00030EF4000A08F5000A128A111729E7
:100018000A128A110F28F601F701F801F901FA010D
:1000280083120313A701A801A901AA0183010A12D7
:100038008A1174298312031320082104031D25281B
:1000480026282D28C3309F05831603170808013872
:1000580088008312031320032104031D3428352844
:100068003E281F08C33904389F0083160317080861
:100078000238880002308312031320062104031D6E
:100088004628472850281F08C33908389F00831678
:100098000317080804388800033083120313200666
:1000A8002104031D5828592862281F08C3390C3811
:1000B8009F00831603170808083888000430831245
:1000C800031320062104031D6A286B2874281F08BF
:1000D800C33910389F0083160317080810388800A2
:1000E80005308312031320062104031D7C287D2874
:1000F80086281F08C33914389F0083160317080879
:100108002038880006308312031320062104031DBB
:100118008E288F2898281F08C33918389F008316FF
:100128000317080840388800073083120313200695
:100138002104031DA028A128AA281F08C3391C3898
:100148009F00831603170808803888000830831238
:10015800031320062104031DB228B328BC281F0856
:10016800C33920389F00831603170908013889000E
:1001780009308312031320062104031DC428C5284F
:10018800CE281F08C33924389F008316031709088F
:10019800023889000A308312031320062104031D44
:1001A800D628D728E0281F08C33928389F00831687
:1001B80003170908043889000B308312031320063B
:1001C8002104031DE828E928F2281F08C3392C3820
:1001D8009F00831603170908083889000C3083121A
:1001E800031320062104031DFA28FB2804291F08ED
:1001F800C33930389F00831603170908103889005F
:100208000D308312031320062104031D0C290D2928
:1002180016291F08C33934389F00831603170908A5
:10022800203889000800831203130C1F1C291D297C
:100238002A290A128A11D5210A128A117108F7008F
:100248007008F6007708F9007608F800831203139F
:100258000C138C1D3029312945290A128A11DF21F6
:100268000A128A11FA007A08031D3B293C294229FF
:1002780078080A128A11EF210A128A1183120313CD
:100288008C1175088A00740E8300FE0E7E0E09001C
:1002980083160317880189010814831603130514AC
:1002A8008601880183120313860188017030831642
:1002B80003138F040F148B170B17831203138C115E
:1002C800831603138C15851683120313A001A1014D
:1002D800A20124300A128A11B7210A128A110800D1
:1002E8000A128A114C210A128A1100308312031350
:1002F800A200A3000A128A1198210A128A118312F5
:1003080003139F188829892983299F14823083120F
:100318000313A600DD30A500A50B9029A60B902994
:1003280083290A128A110C28831203139F131F139F
:10033800831603139F121F129F138312031323089C
:10034800A1002208A0000A128A111E200A128A118E
:10035800831203131F14053083120313A400A40B84
:10036800B329B629080083120313A30083160313C5
:10037800871283120313231DC229C329C9292208FE
:100388008316031394008715CF29200822048316A7
:100398000313940087118312031323082104940084
:1003A8000800831203131E08F200F3017208F0001C
:1003B8007308F10008000A128A11E8210A128A114A
:1003C800831203131308080083160313141CED2962
:1003D800EE29E8290800F00070088312031393003F
:0203E80008000B
:08400000FF3FFF3FFF3FFF3FC0
:04400E00D420FF3F7C
:00000001FF
